:100000000C9463000C948B000C948B000C948B006C
:100010000C948B000C948B000C948B000C944A076E
:100020000C948B000C948B000C948B000C941D0989
:100030000C948B000C948B000C948B000C948B0014
:100040000C9400070C948B000C94CC070C94A6071E
:100050000C948B000C948B000C948B000C948B00F4
:100060000C94FE070C948B00000000002300260077
:10007000290000000000240027002A0000000008DA
:10008000000201000003040700000000000000005F
:10009000010204081020408001020408102001021F
:1000A0000408102000000000250028002B00040494
:1000B0000404040404040202020202020303030310
:1000C000030302001E0A11241FBECFEFD8E0DEBFDB
:1000D000CDBF11E0A0E0B1E0EEEAFDE102C0059085
:1000E0000D92A636B107D9F723E0A6E6B1E001C02C
:1000F0001D92AB31B207E1F710E0C3E6D0E004C0D7
:100100002197FE010E94CF0EC236D107C9F70E9487
:10011000A20A0C94D50E0C9400008F929F92AF927D
:10012000BF92FF920F931F93CF93DF93F09018032A
:100130002BE02F1508F44CC020911A0308E512E0BB
:10014000021B110927FD1395000F111F000F111F2E
:1001500020911903C8E8D0E0C21BD10927FDD3952F
:10016000CC0FDD1FCC0FDD1F4E010D2E000CAA0899
:10017000BB089801012E000C440B550B28193909B6
:100180004A095B09DC010E94540D24EB30E040E099
:1001900050E00E942A0D820E931EA41EB51E8C16DE
:1001A0009D062CF0E801801691060CF4E4012297DC
:1001B000CC0FDD1F2FB7F8948F2D90E0FC01EE0FD0
:1001C000FF1FE80FF91FE951FD4FD283C1832FBFF5
:1001D000DF91CF911F910F91FF90BF90AF909F90B3
:1001E0008F90089590E0FC01E458FF4F2491FC01AA
:1001F000E057FF4F3491FC01E255FF4FE491EE23AD
:10020000C9F0222339F0233001F1A8F4213019F18B
:10021000223029F1F0E0EE0FFF1FEC55FF4FA591C2
:10022000B4918FB7F894EC91611126C030953E23BC
:100230003C938FBF08952730A9F02830C9F02430AF
:1002400049F7809180008F7D03C0809180008F7777
:1002500080938000DFCF84B58F7784BDDBCF84B5FA
:100260008F7DFBCF8091B0008F778093B000D2CF8D
:100270008091B0008F7DF9CF3E2BDACFCF93DF9303
:1002800090E0FC01E057FF4F249182559F4FFC0105
:1002900084918823D1F090E0880F991FFC01EE58DB
:1002A000FF4FA591B491FC01EC55FF4FC591D4913E
:1002B00061110EC09FB7F8948C91E22FE0958E23C8
:1002C0008C932881E223E8839FBFDF91CF9108952B
:1002D0008FB7F894EC91E22BEC938FBFF6CFCF92CF
:1002E000DF92EF92FF92CF936B01909100018917FB
:1002F00049F09F3F09F443C0CF91FF90EF90DF900A
:10030000CF900895E2ECF0E0C491C7FDF5CF61E035
:100310000E943E01F12CE12CCC23D9F0960150E053
:1003200040E0C23009F0A4C07A0160E970ED83E0DA
:1003300090E00E942A0DBA01A901415051096109BA
:10034000710993E04F3F51056105710509F00CF407
:10035000CBC068E478EE81E090E0A70196010E94AE
:100360002A0DBA01A901415051096109710994E0AE
:10037000C111BAC085B5887F836085BDC1C0809337
:100380000001E2ECF0E0C491CF3F09F4B5CFC130F9
:1003900039F148F0C23009F445C0C7FDADCF61E086
:1003A0000E943E01BBCF14BC15BC94B5926094BDB5
:1003B00095B5916095BD282F30E0F901E255FF4FCA
:1003C000E491F0E0EE0FFF1FEC55FF4F4591549183
:1003D000F901E057FF4FE491E0933102C0E097CF7D
:1003E000109280001092810090918100986090930B
:1003F000810090918100916090938100282F30E0DE
:10040000F901E255FF4FE491F0E0EE0FFF1FEC55CC
:10041000FF4F45915491F901E057FF4FE491E0936C
:10042000300275CF1092B0001092B1009091B000E0
:1004300092609093B0009091B10091609093B10060
:10044000282F30E0F901E255FF4FE491F0E0EE0F84
:10045000FF1FEC55FF4F4591549150932F0240934D
:100460002E02F901E057FF4FE491E0932D024FCFA8
:1004700060E072E18AE790E00E942A0DBA01A901CA
:100480004150510961097109C130A1F58091810084
:10049000887F816080938100509389004093880019
:1004A0008FEF9FEFDC018093360290933702A09389
:1004B0003802B093390280916F00826080936F00A0
:1004C0001BCF4093B3008FEF9FEFDC01809332028C
:1004D00090933302A0933402B09335028091700060
:1004E00082608093700008CF8091B100887F892B53
:1004F0008093B100C13081F2C23019F3C111FCCE3A
:1005000047BD8FEF9FEFDC0180933A0290933B024F
:10051000A0933C02B0933D0280916E008260809374
:100520006E00EACE3FB7F8948091290290912A029A
:10053000A0912B02B0912C0226B5A89B05C02F3F9D
:1005400019F00196A11DB11D3FBFBA2FA92F982FF9
:100550008827BC01CD01620F711D811D911D42E0F4
:10056000660F771F881F991F4A95D1F708958F92BC
:100570009F92AF92BF92CF92DF92EF92FF924B0188
:100580005C010E9492026B017C010E9492026C1934
:100590007D098E099F09683E734081059105A8F386
:1005A00021E0821A9108A108B10888EEC80E83E004
:1005B000D81EE11CF11C81149104A104B10429F797
:1005C000FF90EF90DF90CF90BF90AF909F908F9073
:1005D0000895089508959091000189130BC0E2ECED
:1005E000F0E0E4919FEF90930001E13049F028F0B2
:1005F000E23061F060E00C94F20010926E00FACFED
:1006000090916F009D7F90936F00F4CF9091700058
:100610009D7F9093700091E09093B0009091B10015
:10062000987F94609093B1001092B300E3CFAF92A3
:10063000BF92CF92DF92EF92FF920F931F93CF93CF
:10064000DF936C017B018B01040F151FEB015E0131
:10065000AE18BF08C017D10759F06991D601ED91C6
:10066000FC910190F081E02DC6010995892B79F765
:10067000C501DF91CF911F910F91FF90EF90DF9017
:10068000CF90BF90AF900895FC01538D448D252FDE
:1006900030E0842F90E0821B930B541710F0CF961C
:1006A000089501970895FC01918D828D981761F04E
:1006B000A28DAE0FBF2FB11D5D968C91928D9F5F65
:1006C0009F73928F90E008958FEF9FEF0895FC0144
:1006D000918D828D981731F0828DE80FF11D858DF7
:1006E00090E008958FEF9FEF0895FC01918D228D8A
:1006F000892F90E0805C9F4F821B91098F7399270F
:1007000008958EE392E00E94750321E0892B09F49D
:1007100020E0822F089580E090E0892B29F00E944C
:10072000810381110C9400000895FC01A48DA80F91
:10073000B92FB11DA35ABF4F2C91848D90E0019623
:100740008F739927848FA689B7892C93A089B18943
:100750008C91837080648C93938D848D981306C0E4
:100760000288F389E02D80818F7D80830895EF9248
:10077000FF920F931F93CF93DF93EC0181E0888F5B
:100780009B8D8C8D98131AC0E889F989808185FF2B
:1007900015C09FB7F894EE89FF896083E889F989CD
:1007A00080818370806480839FBF81E090E0DF91CF
:1007B000CF911F910F91FF90EF900895F62E0B8D22
:1007C00010E00F5F1F4F0F731127E02E8C8D8E11DD
:1007D0000CC00FB607FCFACFE889F989808185FF44
:1007E000F5CFCE010E949503F1CFEB8DEC0FFD2FDD
:1007F000F11DE35AFF4FF0829FB7F8940B8FEA89FF
:10080000FB8980818062CFCFCF93DF93EC01888D0D
:100810008823B9F0AA89BB89E889F9898C9185FD7B
:1008200003C0808186FD0DC00FB607FCF7CF8C9109
:1008300085FFF2CF808185FFEDCFCE010E94950329
:10084000E9CFDF91CF91089508952091A801260F57
:100850003327331F21323105ECF42091F101FC01E3
:1008600090E080E0243069F082E00895A091A80132
:100870002191AC0148575E4FA40FB52FB11D2C93A9
:100880000196861798F38091A801680F6093A801DC
:1008900080E0089581E008951092F10181E0809355
:1008A000F0011092CB0161E082E10E94F20061E070
:1008B00083E10E94F200E9EBF0E080818E7F80838B
:1008C00080818D7F808388E48093B80085E4809365
:1008D000BC000895CF93DF9391E090938701882324
:1008E000B9F0C091B800D091BA008091BC008A7B69
:1008F0008093BC0060E082E10E94F20060E083E14E
:100900000E94F2000E944C04D093BA00C093B80039
:10091000DF91CF9108950895E091200280911F0208
:10092000E81730F4F0E0E959FE4F808190E0089537
:100930008FEF9FEF08959091200280911F022FEF7B
:100940003FEF981748F4E92FF0E0E959FE4F208176
:1009500030E09F5F90932002C901089580911F02AB
:1009600090912002891B990B0895CF92DF92EF920C
:10097000FF920F931F93CF93DF937C01CB018A01EA
:100980002091F701222389F0EB016B01C40ED51EE3
:10099000CC15DD0569F06991D701ED91FC910190CD
:1009A000F081E02DC7010995F3CF642F0E94250443
:1009B000C801DF91CF911F910F91FF90EF90DF90D1
:1009C000CF900895CF93DF931F92CDB7DEB76983A1
:1009D0002091F7012223F9F020911D02203258F0D6
:1009E00021E030E0FC013383228390E080E00F902F
:1009F000DF91CF91089580911E02E82FF0E0E8503A
:100A0000FE4F998190838F5F80931E0280931D0219
:100A100081E090E0ECCF61E0CE0101960E942504D8
:100A2000F7CFCF92DF92EF92FF920F931F93CF9366
:100A3000DF93FC01C48121E02093F701C0931802E9
:100A400010921E0210921D028385682B8BED92E09E
:100A50000E94E204D0911D02D13208F092C00E949F
:100A600092026B017C018091F101811165C082E0ED
:100A70008093F10181E08093F0018FEF8093EF018B
:100A80001092EE01D093ED01A8EFB1E0EDECF1E0B2
:100A900080E0D81385C01092CC018091CC01CC0F9E
:100AA000C82BC093CC018091CB01813009F07CC070
:100AB0001092CB010E9492026B017C018091CC01CB
:100AC0008093BB008091F3019091F401A091F50116
:100AD000B091F601892B8A2B8B2B99F00E94920200
:100AE0000091F3011091F4012091F5013091F6018C
:100AF0006C197D098E099F09061717072807390702
:100B0000E0F18091BC0083FDD9CF85EC8093BC00DF
:100B10000E9492026B017C018091F101823009F404
:100B200045C08091EF018F3F61F18091EF018032EC
:100B300041F18091EF0125C08091F3019091F40182
:100B4000A091F501B091F601892B8A2B8B2B09F42A
:100B50008ACF0E9492020091F3011091F40120913A
:100B6000F5013091F6016C197D098E099F09061770
:100B700017072807390708F076CF8091F2010E9405
:100B80006A0410921E0210921D021092F701DF916A
:100B9000CF911F910F91FF90EF90DF90CF9008952C
:100BA0009D9191938F5F75CF85EEB0CF8091F301CA
:100BB0009091F401A091F501B091F601892B8A2B57
:100BC0008B2B09F4A9CF0E9492020091F30110919E
:100BD000F4012091F5013091F6016C197D098E091F
:100BE0009F09061717072807390708F095CFC5CFC3
:100BF00090E080E008958F929F92AF92BF920F9302
:100C00001F93CF93DF93CDB7DEB7A1970FB6F894BC
:100C1000DEBF0FBECDBF19A2423008F44AE08E01FC
:100C20000F5D1F4F842E912CB12CA12CA501940196
:100C30000E945C0DE62FB901CA01EA3044F5E05D7F
:100C4000D801EE938D01232B242B252B79F790E0EF
:100C500080E0109769F0FD0101900020E9F73197DD
:100C6000AF014A1B5B0BBD018CE093E00E941703B0
:100C7000A1960FB6F894DEBF0FBECDBFDF91CF9126
:100C80001F910F91BF90AF909F908F900895E95C56
:100C9000D7CFFC0101900020E9F73197AF01481B45
:100CA000590BBC018CE093E00C9417030F931F9336
:100CB000CF938C01C62F0E9411056C2F6460C80170
:100CC0000E9411056C2F6B7FC8010E94110583ECF7
:100CD00090E00197F1F7CF911F910F9108950F9335
:100CE0001F93CF93DF938C01D62FC42F607F642B8B
:100CF0000E94560680E1D89FB00111246C2BC801D8
:100D0000DF91CF911F910F910C945606CF93DF93F3
:100D1000CDB7DEB728970FB6F894DEBF0FBECDBFB4
:100D200098E0E1E0F1E0DE01119601900D929A95D4
:100D3000E1F790911403981708F48FEF90E0880F73
:100D4000991F21E030E02C0F3D1F820F931FFC0103
:100D50006081606840E08CE093E028960FB6F894DC
:100D6000DEBF0FBECDBFDF91CF910C946F0640E088
:100D700061E08CE093E00E946F068BE39FE10197B6
:100D8000F1F7089541E00E946F0681E090E0089538
:100D900085ED8093BC008091F3019091F401A091C6
:100DA000F501B091F6010796A11DB11D23E0B6959E
:100DB000A795979587952A95D1F72091BC0024FD9A
:100DC00003C01092F10108954091F3015091F40194
:100DD0006091F5017091F601452B462B472B69F385
:100DE0000097A105B10541F02AE22A95F1F700C06C
:100DF0000197A109B109E1CF8091F2010C946A0435
:100E00001F920F920FB60F9211242F933F938F933F
:100E10009F93AF93BF938091250290912602A0915A
:100E20002702B09128023091240223E0230F2D37AE
:100E300058F50196A11DB11D20932402809325022F
:100E400090932602A0932702B09328028091290252
:100E500090912A02A0912B02B0912C020196A11D23
:100E6000B11D8093290290932A02A0932B02B09384
:100E70002C02BF91AF919F918F913F912F910F9035
:100E80000FBE0F901F90189526E8230F0296A11D04
:100E9000B11DD2CF1F920F920FB60F9211242F9334
:100EA0003F934F935F936F937F938F939F93AF93F2
:100EB000BF93EF93FF938091320290913302A09100
:100EC0003402B0913502892B8A2B8B2BD1F1909172
:100ED0002D02E0912E02F0912F02808189278083DC
:100EE0008091320290913302A0913402B091350288
:100EF000181619061A061B069CF48091320290916E
:100F00003302A0913402B09135020197A109B109D1
:100F10008093320290933302A0933402B09335024F
:100F2000FF91EF91BF91AF919F918F917F916F91C1
:100F30005F914F913F912F910F900FBE0F901F9097
:100F40001895809100010E94EB02EACF1F920F9248
:100F50000FB60F9211242F933F934F935F936F938C
:100F60007F938F939F93AF93BF93EF93FF938EE302
:100F700092E00E949503FF91EF91BF91AF919F91F5
:100F80008F917F916F915F914F913F912F910F9032
:100F90000FBE0F901F9018951F920F920FB60F92D1
:100FA00011242F938F939F93EF93FF93E0914E0221
:100FB000F0914F028081E0915402F091550282FD40
:100FC0001BC09081809157028F5F8F7320915802D0
:100FD000821741F0E0915702F0E0E25CFD4F958FFF
:100FE00080935702FF91EF919F918F912F910F90D6
:100FF0000FBE0F901F9018958081F4CF1F920F9213
:101000000FB60F9211242F933F934F935F936F93DB
:101010007F938F939F93AF93BF93EF93FF938091B1
:10102000B900887F803609F44AC0F0F5883209F4A7
:10103000A7C018F5803109F49BC0B8F4882309F4DF
:10104000F9C0883009F494C0FF91EF91BF91AF913E
:101050009F918F917F916F915F914F913F912F91D0
:101060000F900FBE0F901F901895883109F488C01B
:10107000803251F78093EF0114C0803409F49DC091
:1010800040F48033B9F38833F9F68093EF0185ECAF
:10109000B0C0803509F485C0883509F496C088341D
:1010A00099F60E94C806D0CF883909F48CC038F56B
:1010B000883729F050F4883611F0803729F683E01C
:1010C0008093F1011092CA0157C0883809F47BC09F
:1010D000803919F0803809F0B7CF8091CA01803289
:1010E00008F071C0E091CA0181E08E0F8093CA01BF
:1010F0008091BB00F0E0E655FE4F80833DC0803B11
:1011000039F0E0F4803A09F479C0883A09F09CCFCC
:1011100084E08093F1011092A9011092A801E0915E
:101120001B02F0911C0209958091A80181110FC04A
:1011300081E08093A8011092880109C0803C09F4E5
:10114000A6CF883C09F4A3CF883B09F07DCFE0917E
:10115000A90181E08E0F8093A901F0E0E857FE4FCE
:1011600080818093BB009091A9018091A80129C042
:101170008091CC018093BB0085EC8093BC0064CF50
:101180009091EE018091ED01981758F5E091EE01F4
:1011900081E08E0F8093EE01F0E0E353FE4F8081FB
:1011A000E9CFE091EE0181E08E0F8093EE01809116
:1011B000BB00F0E0E353FE4F80839091EE018091FD
:1011C000ED019817C8F285E8D8CFE091EE0181E0F3
:1011D0008E0F8093EE018091BB00F0E0E353FE4F51
:1011E00080838091F00181115CCF81E08093CB01FD
:1011F00084EA8093BC001092F10126CF85EC8093A5
:10120000BC001092F1018091CA01803230F4E0916B
:10121000CA01F0E0E655FE4F10826091CA0170E00D
:10122000E0911902F0911A028AEA91E00995109270
:10123000CA010ACF1092EF0134CF1F920F920FB65E
:101240000F9211242F933F934F935F936F937F934C
:101250008F939F93AF93BF93CF93DF93EF93FF93BE
:1012600080916601C0910B03D0E087FF24C01092EB
:10127000850010928400809166018F5F80936601E3
:1012800080916601082E000C990B8C179D0724F4A1
:10129000809166018C30C4F180918400909185002A
:1012A000049680349C4908F47AC08091840090911F
:1012B0008500049676C080916601082E000C990B7B
:1012C0008C179D07C4F6E09166018E2FEE0F990BE7
:1012D000FC01EE0FFF1FE80FF91FE951FD4F808160
:1012E00086FFC9CFE09166018E2FEE0F990BFC01AE
:1012F000EE0FFF1FE80FF91FE951FD4F808160E0FD
:101300008F730E94F200B7CF209184003091850046
:10131000E09166018E2FEE0F990BFC01EE0FFF1F7F
:10132000E80FF91FE951FD4F81819281820F931FD0
:101330009093890080938800E09166018E2FEE0FD4
:10134000990BFC01EE0FFF1FE80FF91FE951FD4F4C
:10135000808186FF11C0E09166018E2FEE0F990B00
:10136000FC01EE0FFF1FE80FF91FE951FD4F8081CF
:1013700061E08F730E94F200FF91EF91DF91CF91B6
:10138000BF91AF919F918F917F916F915F914F919D
:101390003F912F910F900FBE0F901F90189580E4F2
:1013A0009CE990938900809388008FEF8093660179
:1013B000E3CFCF92DF92EF92FF920F931F93E82F2C
:1013C000F92F05C0015011092109310961F19081FE
:1013D00096239417B9F305C0015011092109310969
:1013E00011F1908196239413F7CFC12CD12CE12CCD
:1013F000F12C0AC08FEFC81AD80AE80AF80A0C15AF
:101400001D052E053F0579F080818623841791F311
:101410006C2D7D2D8E2D9F2D1F910F91FF90EF90A4
:10142000DF90CF90089560E070E080E090E01F9141
:101430000F91FF90EF90DF90CF90089510924102AE
:101440001092400288EE93E0A0E0B0E08093420268
:1014500090934302A0934402B09345022DE031E003
:1014600030933F0220933E0225EC30E030934B0254
:1014700020934A0224EC30E030934D0220934C023A
:1014800020EC30E030934F0220934E0221EC30E00C
:10149000309351022093500222EC30E030935302FB
:1014A0002093520226EC30E03093550220935402F0
:1014B00010925702109258021092590210925A023A
:1014C0001092DE021092DD028093DF029093E00220
:1014D000A093E102B093E2028FE191E09093DC02ED
:1014E0008093DB0280910B038C3040F591E0980FE4
:1014F00090930B038093180390E0FC01EE0FFF1F05
:10150000E80FF91FE951FD4F88EB9BE0928381833F
:1015100010920F0310920E0381E391E090930D035C
:1015200080930C0380E28093100380E18093150385
:1015300082E0809316031092170308958FEF809333
:101540001803E6CF789484B5826084BD84B5816049
:1015500084BD85B5826085BD85B5816085BD80917E
:101560006E00816080936E001092810080918100F6
:1015700082608093810080918100816080938100EE
:10158000809180008160809380008091B1008460B0
:101590008093B1008091B00081608093B000809111
:1015A0007A00846080937A0080917A0082608093D0
:1015B0007A0080917A00816080937A0080917A002D
:1015C000806880937A001092C100E0914E02F09101
:1015D0004F0282E08083E0914A02F0914B02108238
:1015E000E0914C02F0914D028FEC808310925602F4
:1015F000E0915202F091530286E08083E091500224
:10160000F0915102808180618083E0915002F091DD
:101610005102808188608083E0915002F0915102F4
:10162000808180688083E0915002F0915102808136
:101630008F7D8083809118038C3008F051C061E069
:1016400086E00E943E0180911803282F30E0F901C6
:10165000EE0FFF1FE20FF31FE951FD4F9081907CC9
:10166000966090831092190310921A032CE0622F57
:101670000E94C30E829FB001112430E020E0AB0134
:10168000420F531FFA01EE0FFF1FE40FF51FE95140
:10169000FD4F908196FD16C02F5F3F4F2C303105D6
:1016A00071F781110FC01092800082E08093810059
:1016B0001092850010928400B19A80916F00826030
:1016C00080936F00E09118038E2F90E0FC01EE0FE5
:1016D000FF1FE80FF91FE951FD4F8081806480836F
:1016E00061E082E00E943E0161E083E00E943E01F1
:1016F00061E088E00E943E0160E089E00E943E01D6
:1017000061E08DE00E943E011092200210921F02C3
:1017100010921E0210921D020E944C0489EE92E06B
:1017200090931C0280931B028AEE92E090931A021F
:10173000809319020E944C041092110380911603A9
:10174000823018F098E0909311038093140362E3C1
:1017500070E080E090E00E94B702609117038CE097
:1017600093E00E94110568EE73E080E090E00E9433
:10177000B70260E38CE093E00E945606CBE4D6E427
:10178000CE010197F1F760E38CE093E00E945606EA
:101790002197F1F760E38CE093E00E94560683E521
:1017A00092E00197F1F760E28CE093E00E94560628
:1017B00060911103606240E08CE093E00E946F064C
:1017C00084E08093120340E06CE08CE093E00E94A0
:1017D0006F060E94B70682E08093130340E066E044
:1017E0008CE093E00E946F0640E062E08CE093E0C2
:1017F0000E946F068BE39FE10197F1F788E08093E9
:10180000170360E08CE093E00E9411050E94B70688
:1018100080E00E94860689E391E00E94490681E00B
:101820000E94860688E491E00E944906C9E9D0E05A
:1018300027EBE22E20E0F22E30E0C32E30E0D32E54
:1018400060E088E00E94F20062E070E080E090E0FA
:101850000E94B70261E088E00E94F2006AE070E056
:1018600080E090E00E94B70260E088E00E94F20011
:10187000FE016491F7018491E82FF0E0EE0FFF1F65
:10188000E859FF4F8591949100E412E42FE030E095
:10189000462F0E94D909611571058105910529F02E
:1018A0006F5F7F4F8F4F9F4F9F709B0177FF02C0ED
:1018B0002F5F3F4FB90175956795072E000C880B78
:1018C000990B0E94370E2AE939E945EE51E40E944E
:1018D0008D0D0E94FF0D70932302609322024091B0
:1018E0002102411173C0603171050CF09AC041E0D2
:1018F00040932102663071050CF07AC068EE73E007
:101900008DE00E946F0164E670E080E090E00E944C
:10191000B7028DE00E94EB0260E082E00E94F200DC
:1019200061E083E00E94F20090E080E00E948D0080
:1019300068EE73E080E090E00E94B70261E082E030
:101940000E94F20060E083E00E94F20084EB90E0ED
:101950000E948D0068EE73E080E090E00E94B70284
:101960008AE590E00E948D0064EF71E080E090E0F5
:101970000E94B702109221020E94B70680E00E94E6
:10198000860687E591E00E944906809022029090A9
:101990002302092C000CAA08BB084AE0C501B401C7
:1019A000B7FE0EC041E06DE28CE093E00E946F064E
:1019B00066277727CB01681979098A099B094AE0CC
:1019C0000E94FB0582E691E00E94490664E670E011
:1019D00080E090E00E94B702C114D10409F430CF36
:1019E0000E948103882309F42BCF0E94000028CF96
:1019F000665071096530710550F460E273E08DE066
:101A00000E946F0168EC70E080E090E080CF68E5B4
:101A100072E08DE00E946F016CE271E080E090E086
:101A200076CF8AE590E00E948D0061E082E00E941E
:101A3000F20060E083E00E94F20080E00E948606EF
:101A400089E391E00E94490681E00E94860688E4CD
:101A500091E0BACF052E97FB1EF400940E94410D31
:101A600057FD07D00E945C0D07FC03D04EF40C9488
:101A7000410D50954095309521953F4F4F4F5F4F09
:101A8000089590958095709561957F4F8F4F9F4FEA
:101A900008950E947E0DA59F900DB49F900DA49F68
:101AA000800D911D11240895B7FF0C94490D0E94DB
:101AB000490D821B930B0895A1E21A2EAA1BBB1B92
:101AC000FD010DC0AA1FBB1FEE1FFF1FA217B3070A
:101AD000E407F50720F0A21BB30BE40BF50B661F20
:101AE000771F881F991F1A9469F7609570958095E4
:101AF00090959B01AC01BD01CF010895A29FB0015B
:101B0000B39FC001A39F700D811D1124911DB29F31
:101B1000700D811D1124911D08950E94A10D0C943A
:101B2000890E0E94820E58F00E947B0E40F029F42C
:101B30005F3F29F00C94720E51110C94BD0E0C9461
:101B4000780E0E949A0E68F39923B1F3552391F30E
:101B5000951B550BBB27AA2762177307840738F01C
:101B60009F5F5F4F220F331F441FAA1FA9F335D079
:101B70000E2E3AF0E0E832D091505040E695001C2D
:101B8000CAF72BD0FE2F29D0660F771F881FBB1FE7
:101B9000261737074807AB07B0E809F0BB0B802DC5
:101BA000BF01FF2793585F4F3AF09E3F510578F0F1
:101BB0000C94720E0C94BD0E5F3FE4F3983ED4F388
:101BC000869577956795B795F7959F5FC9F7880FC5
:101BD000911D9695879597F90895E1E0660F771F17
:101BE000881FBB1F621773078407BA0720F0621BA8
:101BF000730B840BBA0BEE1F88F7E09508950E94D3
:101C0000060E6894B1110C94BD0E08950E94A20EA8
:101C100088F09F5798F0B92F9927B751B0F0E1F0AD
:101C2000660F771F881F991F1AF0BA95C9F714C05D
:101C3000B13091F00E94BC0EB1E008950C94BC0E3E
:101C4000672F782F8827B85F39F0B93FCCF3869596
:101C500077956795B395D9F73EF4909580957095F3
:101C600061957F4F8F4F9F4F0895E89409C097FB70
:101C70003EF490958095709561957F4F8F4F9F4F63
:101C80009923A9F0F92F96E9BB279395F6958795A7
:101C900077956795B795F111F8CFFAF4BB0F11F46A
:101CA00060FF1BC06F5F7F4F8F4F9F4F16C0882311
:101CB00011F096E911C0772321F09EE8872F762F47
:101CC00005C0662371F096E8862F70E060E02AF088
:101CD0009A95660F771F881FDAF7880F9695879574
:101CE00097F9089597F99F6780E870E060E008959C
:101CF0009FEF80EC089500240A9416161706180624
:101D00000906089500240A941216130614060506FF
:101D10000895092E0394000C11F4882352F0BB0F90
:101D200040F4BF2B11F460FF04C06F5F7F4F8F4FF3
:101D30009F4F089557FD9058440F551F59F05F3F2E
:101D400071F04795880F97FB991F61F09F3F79F0DD
:101D500087950895121613061406551FF2CF46955F
:101D6000F1DF08C0161617061806991FF1CF8695E1
:101D70007105610508940895E894BB2766277727C5
:101D8000CB0197F90895991B79E004C0991F961724
:101D900008F0961B881F7A95C9F780950895EE0F75
:0E1DA000FF1F0590F491E02D0994F894FFCFF9
:101DAE00FF000040001400540000000000B70317AD
:101DBE00034403040475035303670300000000E2A9
:101DCE0004B504F8058B04AE049B048C04000000DB
:101DDE0000C2061703F8052404204F544F4D4154FA
:101DEE00494B205041524B00202020202053495374
:101DFE0054454D4920200020204D45534146453A3B
:061E0E00200020434D00FE
:00000001FF
